{
	"contracts/implementations/MockOracle.sol": {
		"MockOracle": {
			"abi": [
				{
					"inputs": [],
					"stateMutability": "nonpayable",
					"type": "constructor"
				},
				{
					"inputs": [],
					"name": "getLatestPrice",
					"outputs": [
						{
							"internalType": "int256",
							"name": "",
							"type": "int256"
						}
					],
					"stateMutability": "view",
					"type": "function"
				},
				{
					"inputs": [
						{
							"internalType": "int256",
							"name": "_price",
							"type": "int256"
						}
					],
					"name": "setPrice",
					"outputs": [],
					"stateMutability": "nonpayable",
					"type": "function"
				}
			],
			"devdoc": {
				"kind": "dev",
				"methods": {},
				"version": 1
			},
			"evm": {
				"assembly": "    /* \"contracts/implementations/MockOracle.sol\":76:427  contract MockOracle {... */\n  mstore(0x40, 0x80)\n    /* \"contracts/implementations/MockOracle.sol\":164:286  constructor(){... */\n  callvalue\n  dup1\n  iszero\n  tag_1\n  jumpi\n  0x00\n  dup1\n  revert\ntag_1:\n  pop\n    /* \"contracts/implementations/MockOracle.sol\":189:201  405807772492 */\n  0x5e7c07334c\n    /* \"contracts/implementations/MockOracle.sol\":181:186  price */\n  0x01\n    /* \"contracts/implementations/MockOracle.sol\":181:201  price = 405807772492 */\n  dup2\n  swap1\n  sstore\n  pop\n    /* \"contracts/implementations/MockOracle.sol\":239:281  0x0000000000000000000000000000000000000000 */\n  0x00\n    /* \"contracts/implementations/MockOracle.sol\":205:214  priceFeed */\n  dup1\n  0x00\n    /* \"contracts/implementations/MockOracle.sol\":205:282  priceFeed = AggregatorV3Interface(0x0000000000000000000000000000000000000000) */\n  0x0100\n  exp\n  dup2\n  sload\n  dup2\n  0xffffffffffffffffffffffffffffffffffffffff\n  mul\n  not\n  and\n  swap1\n  dup4\n  0xffffffffffffffffffffffffffffffffffffffff\n  and\n  mul\n  or\n  swap1\n  sstore\n  pop\n    /* \"contracts/implementations/MockOracle.sol\":76:427  contract MockOracle {... */\n  dataSize(sub_0)\n  dup1\n  dataOffset(sub_0)\n  0x00\n  codecopy\n  0x00\n  return\nstop\n\nsub_0: assembly {\n        /* \"contracts/implementations/MockOracle.sol\":76:427  contract MockOracle {... */\n      mstore(0x40, 0x80)\n      callvalue\n      dup1\n      iszero\n      tag_1\n      jumpi\n      0x00\n      dup1\n      revert\n    tag_1:\n      pop\n      jumpi(tag_2, lt(calldatasize, 0x04))\n      shr(0xe0, calldataload(0x00))\n      dup1\n      0x8e15f473\n      eq\n      tag_3\n      jumpi\n      dup1\n      0xf7a30806\n      eq\n      tag_4\n      jumpi\n    tag_2:\n      0x00\n      dup1\n      revert\n        /* \"contracts/implementations/MockOracle.sol\":289:361  function getLatestPrice() public view returns (int) {... */\n    tag_3:\n      tag_5\n      tag_6\n      jump\t// in\n    tag_5:\n      mload(0x40)\n      tag_7\n      swap2\n      swap1\n      tag_8\n      jump\t// in\n    tag_7:\n      mload(0x40)\n      dup1\n      swap2\n      sub\n      swap1\n      return\n        /* \"contracts/implementations/MockOracle.sol\":364:425  function setPrice(int _price) external {... */\n    tag_4:\n      tag_9\n      0x04\n      dup1\n      calldatasize\n      sub\n      dup2\n      add\n      swap1\n      tag_10\n      swap2\n      swap1\n      tag_11\n      jump\t// in\n    tag_10:\n      tag_12\n      jump\t// in\n    tag_9:\n      stop\n        /* \"contracts/implementations/MockOracle.sol\":289:361  function getLatestPrice() public view returns (int) {... */\n    tag_6:\n        /* \"contracts/implementations/MockOracle.sol\":336:339  int */\n      0x00\n        /* \"contracts/implementations/MockOracle.sol\":352:357  price */\n      sload(0x01)\n        /* \"contracts/implementations/MockOracle.sol\":345:357  return price */\n      swap1\n      pop\n        /* \"contracts/implementations/MockOracle.sol\":289:361  function getLatestPrice() public view returns (int) {... */\n      swap1\n      jump\t// out\n        /* \"contracts/implementations/MockOracle.sol\":364:425  function setPrice(int _price) external {... */\n    tag_12:\n        /* \"contracts/implementations/MockOracle.sol\":415:421  _price */\n      dup1\n        /* \"contracts/implementations/MockOracle.sol\":407:412  price */\n      0x01\n        /* \"contracts/implementations/MockOracle.sol\":407:421  price = _price */\n      dup2\n      swap1\n      sstore\n      pop\n        /* \"contracts/implementations/MockOracle.sol\":364:425  function setPrice(int _price) external {... */\n      pop\n      jump\t// out\n        /* \"#utility.yul\":7:144   */\n    tag_16:\n        /* \"#utility.yul\":52:57   */\n      0x00\n        /* \"#utility.yul\":90:96   */\n      dup2\n        /* \"#utility.yul\":77:97   */\n      calldataload\n        /* \"#utility.yul\":68:97   */\n      swap1\n      pop\n        /* \"#utility.yul\":106:138   */\n      tag_18\n        /* \"#utility.yul\":132:137   */\n      dup2\n        /* \"#utility.yul\":106:138   */\n      tag_19\n      jump\t// in\n    tag_18:\n        /* \"#utility.yul\":7:144   */\n      swap3\n      swap2\n      pop\n      pop\n      jump\t// out\n        /* \"#utility.yul\":150:477   */\n    tag_11:\n        /* \"#utility.yul\":208:214   */\n      0x00\n        /* \"#utility.yul\":257:259   */\n      0x20\n        /* \"#utility.yul\":245:254   */\n      dup3\n        /* \"#utility.yul\":236:243   */\n      dup5\n        /* \"#utility.yul\":232:255   */\n      sub\n        /* \"#utility.yul\":228:260   */\n      slt\n        /* \"#utility.yul\":225:344   */\n      iszero\n      tag_21\n      jumpi\n        /* \"#utility.yul\":263:342   */\n      tag_22\n      tag_23\n      jump\t// in\n    tag_22:\n        /* \"#utility.yul\":225:344   */\n    tag_21:\n        /* \"#utility.yul\":383:384   */\n      0x00\n        /* \"#utility.yul\":408:460   */\n      tag_24\n        /* \"#utility.yul\":452:459   */\n      dup5\n        /* \"#utility.yul\":443:449   */\n      dup3\n        /* \"#utility.yul\":432:441   */\n      dup6\n        /* \"#utility.yul\":428:450   */\n      add\n        /* \"#utility.yul\":408:460   */\n      tag_16\n      jump\t// in\n    tag_24:\n        /* \"#utility.yul\":398:460   */\n      swap2\n      pop\n        /* \"#utility.yul\":354:470   */\n      pop\n        /* \"#utility.yul\":150:477   */\n      swap3\n      swap2\n      pop\n      pop\n      jump\t// out\n        /* \"#utility.yul\":483:598   */\n    tag_25:\n        /* \"#utility.yul\":568:591   */\n      tag_27\n        /* \"#utility.yul\":585:590   */\n      dup2\n        /* \"#utility.yul\":568:591   */\n      tag_28\n      jump\t// in\n    tag_27:\n        /* \"#utility.yul\":563:566   */\n      dup3\n        /* \"#utility.yul\":556:592   */\n      mstore\n        /* \"#utility.yul\":483:598   */\n      pop\n      pop\n      jump\t// out\n        /* \"#utility.yul\":604:822   */\n    tag_8:\n        /* \"#utility.yul\":695:699   */\n      0x00\n        /* \"#utility.yul\":733:735   */\n      0x20\n        /* \"#utility.yul\":722:731   */\n      dup3\n        /* \"#utility.yul\":718:736   */\n      add\n        /* \"#utility.yul\":710:736   */\n      swap1\n      pop\n        /* \"#utility.yul\":746:815   */\n      tag_30\n        /* \"#utility.yul\":812:813   */\n      0x00\n        /* \"#utility.yul\":801:810   */\n      dup4\n        /* \"#utility.yul\":797:814   */\n      add\n        /* \"#utility.yul\":788:794   */\n      dup5\n        /* \"#utility.yul\":746:815   */\n      tag_25\n      jump\t// in\n    tag_30:\n        /* \"#utility.yul\":604:822   */\n      swap3\n      swap2\n      pop\n      pop\n      jump\t// out\n        /* \"#utility.yul\":909:985   */\n    tag_28:\n        /* \"#utility.yul\":945:952   */\n      0x00\n        /* \"#utility.yul\":974:979   */\n      dup2\n        /* \"#utility.yul\":963:979   */\n      swap1\n      pop\n        /* \"#utility.yul\":909:985   */\n      swap2\n      swap1\n      pop\n      jump\t// out\n        /* \"#utility.yul\":1114:1231   */\n    tag_23:\n        /* \"#utility.yul\":1223:1224   */\n      0x00\n        /* \"#utility.yul\":1220:1221   */\n      dup1\n        /* \"#utility.yul\":1213:1225   */\n      revert\n        /* \"#utility.yul\":1237:1357   */\n    tag_19:\n        /* \"#utility.yul\":1309:1332   */\n      tag_38\n        /* \"#utility.yul\":1326:1331   */\n      dup2\n        /* \"#utility.yul\":1309:1332   */\n      tag_28\n      jump\t// in\n    tag_38:\n        /* \"#utility.yul\":1302:1307   */\n      dup2\n        /* \"#utility.yul\":1299:1333   */\n      eq\n        /* \"#utility.yul\":1289:1351   */\n      tag_39\n      jumpi\n        /* \"#utility.yul\":1347:1348   */\n      0x00\n        /* \"#utility.yul\":1344:1345   */\n      dup1\n        /* \"#utility.yul\":1337:1349   */\n      revert\n        /* \"#utility.yul\":1289:1351   */\n    tag_39:\n        /* \"#utility.yul\":1237:1357   */\n      pop\n      jump\t// out\n\n    auxdata: 0xa2646970667358221220e943ae280eaf593ea933f7fc018c672407d3070812352732c1136779f1527ae664736f6c63430008070033\n}\n",
				"bytecode": {
					"linkReferences": {},
					"object": "608060405234801561001057600080fd5b50645e7c07334c60018190555060008060006101000a81548173ffffffffffffffffffffffffffffffffffffffff021916908373ffffffffffffffffffffffffffffffffffffffff1602179055506101518061006d6000396000f3fe608060405234801561001057600080fd5b50600436106100365760003560e01c80638e15f4731461003b578063f7a3080614610059575b600080fd5b610043610075565b60405161005091906100da565b60405180910390f35b610073600480360381019061006e919061009e565b61007f565b005b6000600154905090565b8060018190555050565b60008135905061009881610104565b92915050565b6000602082840312156100b4576100b36100ff565b5b60006100c284828501610089565b91505092915050565b6100d4816100f5565b82525050565b60006020820190506100ef60008301846100cb565b92915050565b6000819050919050565b600080fd5b61010d816100f5565b811461011857600080fd5b5056fea2646970667358221220e943ae280eaf593ea933f7fc018c672407d3070812352732c1136779f1527ae664736f6c63430008070033",
					"opcodes": "PUSH1 0x80 PUSH1 0x40 MSTORE CALLVALUE DUP1 ISZERO PUSH2 0x10 JUMPI PUSH1 0x0 DUP1 REVERT JUMPDEST POP PUSH5 0x5E7C07334C PUSH1 0x1 DUP2 SWAP1 SSTORE POP PUSH1 0x0 DUP1 PUSH1 0x0 PUSH2 0x100 EXP DUP2 SLOAD DUP2 PUSH20 0xFFFFFFFFFFFFFFFFFFFFFFFFFFFFFFFFFFFFFFFF MUL NOT AND SWAP1 DUP4 PUSH20 0xFFFFFFFFFFFFFFFFFFFFFFFFFFFFFFFFFFFFFFFF AND MUL OR SWAP1 SSTORE POP PUSH2 0x151 DUP1 PUSH2 0x6D PUSH1 0x0 CODECOPY PUSH1 0x0 RETURN INVALID PUSH1 0x80 PUSH1 0x40 MSTORE CALLVALUE DUP1 ISZERO PUSH2 0x10 JUMPI PUSH1 0x0 DUP1 REVERT JUMPDEST POP PUSH1 0x4 CALLDATASIZE LT PUSH2 0x36 JUMPI PUSH1 0x0 CALLDATALOAD PUSH1 0xE0 SHR DUP1 PUSH4 0x8E15F473 EQ PUSH2 0x3B JUMPI DUP1 PUSH4 0xF7A30806 EQ PUSH2 0x59 JUMPI JUMPDEST PUSH1 0x0 DUP1 REVERT JUMPDEST PUSH2 0x43 PUSH2 0x75 JUMP JUMPDEST PUSH1 0x40 MLOAD PUSH2 0x50 SWAP2 SWAP1 PUSH2 0xDA JUMP JUMPDEST PUSH1 0x40 MLOAD DUP1 SWAP2 SUB SWAP1 RETURN JUMPDEST PUSH2 0x73 PUSH1 0x4 DUP1 CALLDATASIZE SUB DUP2 ADD SWAP1 PUSH2 0x6E SWAP2 SWAP1 PUSH2 0x9E JUMP JUMPDEST PUSH2 0x7F JUMP JUMPDEST STOP JUMPDEST PUSH1 0x0 PUSH1 0x1 SLOAD SWAP1 POP SWAP1 JUMP JUMPDEST DUP1 PUSH1 0x1 DUP2 SWAP1 SSTORE POP POP JUMP JUMPDEST PUSH1 0x0 DUP2 CALLDATALOAD SWAP1 POP PUSH2 0x98 DUP2 PUSH2 0x104 JUMP JUMPDEST SWAP3 SWAP2 POP POP JUMP JUMPDEST PUSH1 0x0 PUSH1 0x20 DUP3 DUP5 SUB SLT ISZERO PUSH2 0xB4 JUMPI PUSH2 0xB3 PUSH2 0xFF JUMP JUMPDEST JUMPDEST PUSH1 0x0 PUSH2 0xC2 DUP5 DUP3 DUP6 ADD PUSH2 0x89 JUMP JUMPDEST SWAP2 POP POP SWAP3 SWAP2 POP POP JUMP JUMPDEST PUSH2 0xD4 DUP2 PUSH2 0xF5 JUMP JUMPDEST DUP3 MSTORE POP POP JUMP JUMPDEST PUSH1 0x0 PUSH1 0x20 DUP3 ADD SWAP1 POP PUSH2 0xEF PUSH1 0x0 DUP4 ADD DUP5 PUSH2 0xCB JUMP JUMPDEST SWAP3 SWAP2 POP POP JUMP JUMPDEST PUSH1 0x0 DUP2 SWAP1 POP SWAP2 SWAP1 POP JUMP JUMPDEST PUSH1 0x0 DUP1 REVERT JUMPDEST PUSH2 0x10D DUP2 PUSH2 0xF5 JUMP JUMPDEST DUP2 EQ PUSH2 0x118 JUMPI PUSH1 0x0 DUP1 REVERT JUMPDEST POP JUMP INVALID LOG2 PUSH5 0x6970667358 0x22 SLT KECCAK256 0xE9 NUMBER 0xAE 0x28 0xE 0xAF MSIZE RETURNDATACOPY 0xA9 CALLER 0xF7 0xFC ADD DUP13 PUSH8 0x2407D30708123527 ORIGIN 0xC1 SGT PUSH8 0x79F1527AE664736F PUSH13 0x63430008070033000000000000 "
				},
				"gasEstimates": {
					"creation": {
						"codeDepositCost": "67400",
						"executionCost": "46498",
						"totalCost": "113898"
					},
					"external": {
						"getLatestPrice()": "2415",
						"setPrice(int256)": "22520"
					}
				},
				"methodIdentifiers": {
					"getLatestPrice()": "8e15f473",
					"setPrice(int256)": "f7a30806"
				}
			},
			"storageLayout": {
				"storage": [
					{
						"astId": 5,
						"contract": "contracts/implementations/MockOracle.sol:MockOracle",
						"label": "priceFeed",
						"offset": 0,
						"slot": "0",
						"type": "t_contract(AggregatorV3Interface)86"
					},
					{
						"astId": 7,
						"contract": "contracts/implementations/MockOracle.sol:MockOracle",
						"label": "price",
						"offset": 0,
						"slot": "1",
						"type": "t_int256"
					}
				],
				"types": {
					"t_contract(AggregatorV3Interface)86": {
						"encoding": "inplace",
						"label": "contract AggregatorV3Interface",
						"numberOfBytes": "20"
					},
					"t_int256": {
						"encoding": "inplace",
						"label": "int256",
						"numberOfBytes": "32"
					}
				}
			},
			"userdoc": {
				"kind": "user",
				"methods": {},
				"version": 1
			}
		}
	}
}