{
	"contracts/implementations/PriceConsumerV3.sol": {
		"PriceConsumerV3": {
			"abi": [
				{
					"inputs": [],
					"stateMutability": "nonpayable",
					"type": "constructor"
				},
				{
					"inputs": [],
					"name": "getLatestPrice",
					"outputs": [
						{
							"internalType": "int256",
							"name": "",
							"type": "int256"
						}
					],
					"stateMutability": "view",
					"type": "function"
				}
			],
			"devdoc": {
				"kind": "dev",
				"methods": {},
				"version": 1
			},
			"evm": {
				"assembly": "    /* \"contracts/implementations/PriceConsumerV3.sol\":76:718  contract PriceConsumerV3 {... */\n  mstore(0x40, 0x80)\n    /* \"contracts/implementations/PriceConsumerV3.sol\":279:387  constructor() {... */\n  callvalue\n  dup1\n  iszero\n  tag_1\n  jumpi\n  0x00\n  dup1\n  revert\ntag_1:\n  pop\n    /* \"contracts/implementations/PriceConsumerV3.sol\":337:379  0x9326BFA02ADD2366b30bacB125260Af641031331 */\n  0x9326bfa02add2366b30bacb125260af641031331\n    /* \"contracts/implementations/PriceConsumerV3.sol\":303:312  priceFeed */\n  0x00\n  dup1\n    /* \"contracts/implementations/PriceConsumerV3.sol\":303:380  priceFeed = AggregatorV3Interface(0x9326BFA02ADD2366b30bacB125260Af641031331) */\n  0x0100\n  exp\n  dup2\n  sload\n  dup2\n  0xffffffffffffffffffffffffffffffffffffffff\n  mul\n  not\n  and\n  swap1\n  dup4\n  0xffffffffffffffffffffffffffffffffffffffff\n  and\n  mul\n  or\n  swap1\n  sstore\n  pop\n    /* \"contracts/implementations/PriceConsumerV3.sol\":76:718  contract PriceConsumerV3 {... */\n  dataSize(sub_0)\n  dup1\n  dataOffset(sub_0)\n  0x00\n  codecopy\n  0x00\n  return\nstop\n\nsub_0: assembly {\n        /* \"contracts/implementations/PriceConsumerV3.sol\":76:718  contract PriceConsumerV3 {... */\n      mstore(0x40, 0x80)\n      callvalue\n      dup1\n      iszero\n      tag_1\n      jumpi\n      0x00\n      dup1\n      revert\n    tag_1:\n      pop\n      jumpi(tag_2, lt(calldatasize, 0x04))\n      shr(0xe0, calldataload(0x00))\n      dup1\n      0x8e15f473\n      eq\n      tag_3\n      jumpi\n    tag_2:\n      0x00\n      dup1\n      revert\n        /* \"contracts/implementations/PriceConsumerV3.sol\":441:716  function getLatestPrice() public view returns (int) {... */\n    tag_3:\n      tag_4\n      tag_5\n      jump\t// in\n    tag_4:\n      mload(0x40)\n      tag_6\n      swap2\n      swap1\n      tag_7\n      jump\t// in\n    tag_6:\n      mload(0x40)\n      dup1\n      swap2\n      sub\n      swap1\n      return\n    tag_5:\n        /* \"contracts/implementations/PriceConsumerV3.sol\":488:491  int */\n      0x00\n        /* \"contracts/implementations/PriceConsumerV3.sol\":517:531  uint80 roundID */\n      dup1\n        /* \"contracts/implementations/PriceConsumerV3.sol\":546:555  int price */\n      0x00\n        /* \"contracts/implementations/PriceConsumerV3.sol\":569:583  uint startedAt */\n      dup1\n        /* \"contracts/implementations/PriceConsumerV3.sol\":597:611  uint timeStamp */\n      0x00\n        /* \"contracts/implementations/PriceConsumerV3.sol\":625:647  uint80 answeredInRound */\n      dup1\n        /* \"contracts/implementations/PriceConsumerV3.sol\":660:669  priceFeed */\n      0x00\n      dup1\n      sload\n      swap1\n      0x0100\n      exp\n      swap1\n      div\n      0xffffffffffffffffffffffffffffffffffffffff\n      and\n        /* \"contracts/implementations/PriceConsumerV3.sol\":660:685  priceFeed.latestRoundData */\n      0xffffffffffffffffffffffffffffffffffffffff\n      and\n      0xfeaf968c\n        /* \"contracts/implementations/PriceConsumerV3.sol\":660:687  priceFeed.latestRoundData() */\n      mload(0x40)\n      dup2\n      0xffffffff\n      and\n      0xe0\n      shl\n      dup2\n      mstore\n      0x04\n      add\n      0xa0\n      mload(0x40)\n      dup1\n      dup4\n      sub\n      dup2\n      dup7\n      dup1\n      extcodesize\n      iszero\n      dup1\n      iszero\n      tag_9\n      jumpi\n      0x00\n      dup1\n      revert\n    tag_9:\n      pop\n      gas\n      staticcall\n      iszero\n      dup1\n      iszero\n      tag_11\n      jumpi\n      returndatasize\n      0x00\n      dup1\n      returndatacopy\n      revert(0x00, returndatasize)\n    tag_11:\n      pop\n      pop\n      pop\n      pop\n      mload(0x40)\n      returndatasize\n      not(0x1f)\n      0x1f\n      dup3\n      add\n      and\n      dup3\n      add\n      dup1\n      0x40\n      mstore\n      pop\n      dup2\n      add\n      swap1\n      tag_12\n      swap2\n      swap1\n      tag_13\n      jump\t// in\n    tag_12:\n        /* \"contracts/implementations/PriceConsumerV3.sol\":503:687  (... */\n      swap5\n      pop\n      swap5\n      pop\n      swap5\n      pop\n      swap5\n      pop\n      swap5\n      pop\n        /* \"contracts/implementations/PriceConsumerV3.sol\":704:709  price */\n      dup4\n        /* \"contracts/implementations/PriceConsumerV3.sol\":697:709  return price */\n      swap6\n      pop\n      pop\n      pop\n      pop\n      pop\n      pop\n        /* \"contracts/implementations/PriceConsumerV3.sol\":441:716  function getLatestPrice() public view returns (int) {... */\n      swap1\n      jump\t// out\n        /* \"#utility.yul\":7:148   */\n    tag_15:\n        /* \"#utility.yul\":63:68   */\n      0x00\n        /* \"#utility.yul\":94:100   */\n      dup2\n        /* \"#utility.yul\":88:101   */\n      mload\n        /* \"#utility.yul\":79:101   */\n      swap1\n      pop\n        /* \"#utility.yul\":110:142   */\n      tag_17\n        /* \"#utility.yul\":136:141   */\n      dup2\n        /* \"#utility.yul\":110:142   */\n      tag_18\n      jump\t// in\n    tag_17:\n        /* \"#utility.yul\":7:148   */\n      swap3\n      swap2\n      pop\n      pop\n      jump\t// out\n        /* \"#utility.yul\":154:297   */\n    tag_19:\n        /* \"#utility.yul\":211:216   */\n      0x00\n        /* \"#utility.yul\":242:248   */\n      dup2\n        /* \"#utility.yul\":236:249   */\n      mload\n        /* \"#utility.yul\":227:249   */\n      swap1\n      pop\n        /* \"#utility.yul\":258:291   */\n      tag_21\n        /* \"#utility.yul\":285:290   */\n      dup2\n        /* \"#utility.yul\":258:291   */\n      tag_22\n      jump\t// in\n    tag_21:\n        /* \"#utility.yul\":154:297   */\n      swap3\n      swap2\n      pop\n      pop\n      jump\t// out\n        /* \"#utility.yul\":303:444   */\n    tag_23:\n        /* \"#utility.yul\":359:364   */\n      0x00\n        /* \"#utility.yul\":390:396   */\n      dup2\n        /* \"#utility.yul\":384:397   */\n      mload\n        /* \"#utility.yul\":375:397   */\n      swap1\n      pop\n        /* \"#utility.yul\":406:438   */\n      tag_25\n        /* \"#utility.yul\":432:437   */\n      dup2\n        /* \"#utility.yul\":406:438   */\n      tag_26\n      jump\t// in\n    tag_25:\n        /* \"#utility.yul\":303:444   */\n      swap3\n      swap2\n      pop\n      pop\n      jump\t// out\n        /* \"#utility.yul\":450:1421   */\n    tag_13:\n        /* \"#utility.yul\":553:559   */\n      0x00\n        /* \"#utility.yul\":561:567   */\n      dup1\n        /* \"#utility.yul\":569:575   */\n      0x00\n        /* \"#utility.yul\":577:583   */\n      dup1\n        /* \"#utility.yul\":585:591   */\n      0x00\n        /* \"#utility.yul\":634:637   */\n      0xa0\n        /* \"#utility.yul\":622:631   */\n      dup7\n        /* \"#utility.yul\":613:620   */\n      dup9\n        /* \"#utility.yul\":609:632   */\n      sub\n        /* \"#utility.yul\":605:638   */\n      slt\n        /* \"#utility.yul\":602:722   */\n      iszero\n      tag_28\n      jumpi\n        /* \"#utility.yul\":641:720   */\n      tag_29\n      tag_30\n      jump\t// in\n    tag_29:\n        /* \"#utility.yul\":602:722   */\n    tag_28:\n        /* \"#utility.yul\":761:762   */\n      0x00\n        /* \"#utility.yul\":786:849   */\n      tag_31\n        /* \"#utility.yul\":841:848   */\n      dup9\n        /* \"#utility.yul\":832:838   */\n      dup3\n        /* \"#utility.yul\":821:830   */\n      dup10\n        /* \"#utility.yul\":817:839   */\n      add\n        /* \"#utility.yul\":786:849   */\n      tag_23\n      jump\t// in\n    tag_31:\n        /* \"#utility.yul\":776:849   */\n      swap6\n      pop\n        /* \"#utility.yul\":732:859   */\n      pop\n        /* \"#utility.yul\":898:900   */\n      0x20\n        /* \"#utility.yul\":924:987   */\n      tag_32\n        /* \"#utility.yul\":979:986   */\n      dup9\n        /* \"#utility.yul\":970:976   */\n      dup3\n        /* \"#utility.yul\":959:968   */\n      dup10\n        /* \"#utility.yul\":955:977   */\n      add\n        /* \"#utility.yul\":924:987   */\n      tag_15\n      jump\t// in\n    tag_32:\n        /* \"#utility.yul\":914:987   */\n      swap5\n      pop\n        /* \"#utility.yul\":869:997   */\n      pop\n        /* \"#utility.yul\":1036:1038   */\n      0x40\n        /* \"#utility.yul\":1062:1126   */\n      tag_33\n        /* \"#utility.yul\":1118:1125   */\n      dup9\n        /* \"#utility.yul\":1109:1115   */\n      dup3\n        /* \"#utility.yul\":1098:1107   */\n      dup10\n        /* \"#utility.yul\":1094:1116   */\n      add\n        /* \"#utility.yul\":1062:1126   */\n      tag_19\n      jump\t// in\n    tag_33:\n        /* \"#utility.yul\":1052:1126   */\n      swap4\n      pop\n        /* \"#utility.yul\":1007:1136   */\n      pop\n        /* \"#utility.yul\":1175:1177   */\n      0x60\n        /* \"#utility.yul\":1201:1265   */\n      tag_34\n        /* \"#utility.yul\":1257:1264   */\n      dup9\n        /* \"#utility.yul\":1248:1254   */\n      dup3\n        /* \"#utility.yul\":1237:1246   */\n      dup10\n        /* \"#utility.yul\":1233:1255   */\n      add\n        /* \"#utility.yul\":1201:1265   */\n      tag_19\n      jump\t// in\n    tag_34:\n        /* \"#utility.yul\":1191:1265   */\n      swap3\n      pop\n        /* \"#utility.yul\":1146:1275   */\n      pop\n        /* \"#utility.yul\":1314:1317   */\n      0x80\n        /* \"#utility.yul\":1341:1404   */\n      tag_35\n        /* \"#utility.yul\":1396:1403   */\n      dup9\n        /* \"#utility.yul\":1387:1393   */\n      dup3\n        /* \"#utility.yul\":1376:1385   */\n      dup10\n        /* \"#utility.yul\":1372:1394   */\n      add\n        /* \"#utility.yul\":1341:1404   */\n      tag_23\n      jump\t// in\n    tag_35:\n        /* \"#utility.yul\":1331:1404   */\n      swap2\n      pop\n        /* \"#utility.yul\":1285:1414   */\n      pop\n        /* \"#utility.yul\":450:1421   */\n      swap3\n      swap6\n      pop\n      swap3\n      swap6\n      swap1\n      swap4\n      pop\n      jump\t// out\n        /* \"#utility.yul\":1427:1542   */\n    tag_36:\n        /* \"#utility.yul\":1512:1535   */\n      tag_38\n        /* \"#utility.yul\":1529:1534   */\n      dup2\n        /* \"#utility.yul\":1512:1535   */\n      tag_39\n      jump\t// in\n    tag_38:\n        /* \"#utility.yul\":1507:1510   */\n      dup3\n        /* \"#utility.yul\":1500:1536   */\n      mstore\n        /* \"#utility.yul\":1427:1542   */\n      pop\n      pop\n      jump\t// out\n        /* \"#utility.yul\":1548:1766   */\n    tag_7:\n        /* \"#utility.yul\":1639:1643   */\n      0x00\n        /* \"#utility.yul\":1677:1679   */\n      0x20\n        /* \"#utility.yul\":1666:1675   */\n      dup3\n        /* \"#utility.yul\":1662:1680   */\n      add\n        /* \"#utility.yul\":1654:1680   */\n      swap1\n      pop\n        /* \"#utility.yul\":1690:1759   */\n      tag_41\n        /* \"#utility.yul\":1756:1757   */\n      0x00\n        /* \"#utility.yul\":1745:1754   */\n      dup4\n        /* \"#utility.yul\":1741:1758   */\n      add\n        /* \"#utility.yul\":1732:1738   */\n      dup5\n        /* \"#utility.yul\":1690:1759   */\n      tag_36\n      jump\t// in\n    tag_41:\n        /* \"#utility.yul\":1548:1766   */\n      swap3\n      swap2\n      pop\n      pop\n      jump\t// out\n        /* \"#utility.yul\":1853:1929   */\n    tag_39:\n        /* \"#utility.yul\":1889:1896   */\n      0x00\n        /* \"#utility.yul\":1918:1923   */\n      dup2\n        /* \"#utility.yul\":1907:1923   */\n      swap1\n      pop\n        /* \"#utility.yul\":1853:1929   */\n      swap2\n      swap1\n      pop\n      jump\t// out\n        /* \"#utility.yul\":1935:2012   */\n    tag_45:\n        /* \"#utility.yul\":1972:1979   */\n      0x00\n        /* \"#utility.yul\":2001:2006   */\n      dup2\n        /* \"#utility.yul\":1990:2006   */\n      swap1\n      pop\n        /* \"#utility.yul\":1935:2012   */\n      swap2\n      swap1\n      pop\n      jump\t// out\n        /* \"#utility.yul\":2018:2123   */\n    tag_47:\n        /* \"#utility.yul\":2054:2061   */\n      0x00\n        /* \"#utility.yul\":2094:2116   */\n      0xffffffffffffffffffff\n        /* \"#utility.yul\":2087:2092   */\n      dup3\n        /* \"#utility.yul\":2083:2117   */\n      and\n        /* \"#utility.yul\":2072:2117   */\n      swap1\n      pop\n        /* \"#utility.yul\":2018:2123   */\n      swap2\n      swap1\n      pop\n      jump\t// out\n        /* \"#utility.yul\":2252:2369   */\n    tag_30:\n        /* \"#utility.yul\":2361:2362   */\n      0x00\n        /* \"#utility.yul\":2358:2359   */\n      dup1\n        /* \"#utility.yul\":2351:2363   */\n      revert\n        /* \"#utility.yul\":2375:2495   */\n    tag_18:\n        /* \"#utility.yul\":2447:2470   */\n      tag_53\n        /* \"#utility.yul\":2464:2469   */\n      dup2\n        /* \"#utility.yul\":2447:2470   */\n      tag_39\n      jump\t// in\n    tag_53:\n        /* \"#utility.yul\":2440:2445   */\n      dup2\n        /* \"#utility.yul\":2437:2471   */\n      eq\n        /* \"#utility.yul\":2427:2489   */\n      tag_54\n      jumpi\n        /* \"#utility.yul\":2485:2486   */\n      0x00\n        /* \"#utility.yul\":2482:2483   */\n      dup1\n        /* \"#utility.yul\":2475:2487   */\n      revert\n        /* \"#utility.yul\":2427:2489   */\n    tag_54:\n        /* \"#utility.yul\":2375:2495   */\n      pop\n      jump\t// out\n        /* \"#utility.yul\":2501:2623   */\n    tag_22:\n        /* \"#utility.yul\":2574:2598   */\n      tag_56\n        /* \"#utility.yul\":2592:2597   */\n      dup2\n        /* \"#utility.yul\":2574:2598   */\n      tag_45\n      jump\t// in\n    tag_56:\n        /* \"#utility.yul\":2567:2572   */\n      dup2\n        /* \"#utility.yul\":2564:2599   */\n      eq\n        /* \"#utility.yul\":2554:2617   */\n      tag_57\n      jumpi\n        /* \"#utility.yul\":2613:2614   */\n      0x00\n        /* \"#utility.yul\":2610:2611   */\n      dup1\n        /* \"#utility.yul\":2603:2615   */\n      revert\n        /* \"#utility.yul\":2554:2617   */\n    tag_57:\n        /* \"#utility.yul\":2501:2623   */\n      pop\n      jump\t// out\n        /* \"#utility.yul\":2629:2749   */\n    tag_26:\n        /* \"#utility.yul\":2701:2724   */\n      tag_59\n        /* \"#utility.yul\":2718:2723   */\n      dup2\n        /* \"#utility.yul\":2701:2724   */\n      tag_47\n      jump\t// in\n    tag_59:\n        /* \"#utility.yul\":2694:2699   */\n      dup2\n        /* \"#utility.yul\":2691:2725   */\n      eq\n        /* \"#utility.yul\":2681:2743   */\n      tag_60\n      jumpi\n        /* \"#utility.yul\":2739:2740   */\n      0x00\n        /* \"#utility.yul\":2736:2737   */\n      dup1\n        /* \"#utility.yul\":2729:2741   */\n      revert\n        /* \"#utility.yul\":2681:2743   */\n    tag_60:\n        /* \"#utility.yul\":2629:2749   */\n      pop\n      jump\t// out\n\n    auxdata: 0xa2646970667358221220d930035f9d71e0fa151e46f9627b7f0a9dfcab727817dadc5fdda341adaea57a64736f6c63430008070033\n}\n",
				"bytecode": {
					"linkReferences": {},
					"object": "608060405234801561001057600080fd5b50739326bfa02add2366b30bacb125260af6410313316000806101000a81548173ffffffffffffffffffffffffffffffffffffffff021916908373ffffffffffffffffffffffffffffffffffffffff160217905550610298806100746000396000f3fe608060405234801561001057600080fd5b506004361061002b5760003560e01c80638e15f47314610030575b600080fd5b61003861004e565b60405161004591906101d3565b60405180910390f35b60008060008060008060008054906101000a900473ffffffffffffffffffffffffffffffffffffffff1673ffffffffffffffffffffffffffffffffffffffff1663feaf968c6040518163ffffffff1660e01b815260040160a06040518083038186803b1580156100bd57600080fd5b505afa1580156100d1573d6000803e3d6000fd5b505050506040513d601f19601f820116820180604052508101906100f59190610149565b94509450945094509450839550505050505090565b6000815190506101198161021d565b92915050565b60008151905061012e81610234565b92915050565b6000815190506101438161024b565b92915050565b600080600080600060a0868803121561016557610164610218565b5b600061017388828901610134565b95505060206101848882890161010a565b94505060406101958882890161011f565b93505060606101a68882890161011f565b92505060806101b788828901610134565b9150509295509295909350565b6101cd816101ee565b82525050565b60006020820190506101e860008301846101c4565b92915050565b6000819050919050565b6000819050919050565b600069ffffffffffffffffffff82169050919050565b600080fd5b610226816101ee565b811461023157600080fd5b50565b61023d816101f8565b811461024857600080fd5b50565b61025481610202565b811461025f57600080fd5b5056fea2646970667358221220d930035f9d71e0fa151e46f9627b7f0a9dfcab727817dadc5fdda341adaea57a64736f6c63430008070033",
					"opcodes": "PUSH1 0x80 PUSH1 0x40 MSTORE CALLVALUE DUP1 ISZERO PUSH2 0x10 JUMPI PUSH1 0x0 DUP1 REVERT JUMPDEST POP PUSH20 0x9326BFA02ADD2366B30BACB125260AF641031331 PUSH1 0x0 DUP1 PUSH2 0x100 EXP DUP2 SLOAD DUP2 PUSH20 0xFFFFFFFFFFFFFFFFFFFFFFFFFFFFFFFFFFFFFFFF MUL NOT AND SWAP1 DUP4 PUSH20 0xFFFFFFFFFFFFFFFFFFFFFFFFFFFFFFFFFFFFFFFF AND MUL OR SWAP1 SSTORE POP PUSH2 0x298 DUP1 PUSH2 0x74 PUSH1 0x0 CODECOPY PUSH1 0x0 RETURN INVALID PUSH1 0x80 PUSH1 0x40 MSTORE CALLVALUE DUP1 ISZERO PUSH2 0x10 JUMPI PUSH1 0x0 DUP1 REVERT JUMPDEST POP PUSH1 0x4 CALLDATASIZE LT PUSH2 0x2B JUMPI PUSH1 0x0 CALLDATALOAD PUSH1 0xE0 SHR DUP1 PUSH4 0x8E15F473 EQ PUSH2 0x30 JUMPI JUMPDEST PUSH1 0x0 DUP1 REVERT JUMPDEST PUSH2 0x38 PUSH2 0x4E JUMP JUMPDEST PUSH1 0x40 MLOAD PUSH2 0x45 SWAP2 SWAP1 PUSH2 0x1D3 JUMP JUMPDEST PUSH1 0x40 MLOAD DUP1 SWAP2 SUB SWAP1 RETURN JUMPDEST PUSH1 0x0 DUP1 PUSH1 0x0 DUP1 PUSH1 0x0 DUP1 PUSH1 0x0 DUP1 SLOAD SWAP1 PUSH2 0x100 EXP SWAP1 DIV PUSH20 0xFFFFFFFFFFFFFFFFFFFFFFFFFFFFFFFFFFFFFFFF AND PUSH20 0xFFFFFFFFFFFFFFFFFFFFFFFFFFFFFFFFFFFFFFFF AND PUSH4 0xFEAF968C PUSH1 0x40 MLOAD DUP2 PUSH4 0xFFFFFFFF AND PUSH1 0xE0 SHL DUP2 MSTORE PUSH1 0x4 ADD PUSH1 0xA0 PUSH1 0x40 MLOAD DUP1 DUP4 SUB DUP2 DUP7 DUP1 EXTCODESIZE ISZERO DUP1 ISZERO PUSH2 0xBD JUMPI PUSH1 0x0 DUP1 REVERT JUMPDEST POP GAS STATICCALL ISZERO DUP1 ISZERO PUSH2 0xD1 JUMPI RETURNDATASIZE PUSH1 0x0 DUP1 RETURNDATACOPY RETURNDATASIZE PUSH1 0x0 REVERT JUMPDEST POP POP POP POP PUSH1 0x40 MLOAD RETURNDATASIZE PUSH1 0x1F NOT PUSH1 0x1F DUP3 ADD AND DUP3 ADD DUP1 PUSH1 0x40 MSTORE POP DUP2 ADD SWAP1 PUSH2 0xF5 SWAP2 SWAP1 PUSH2 0x149 JUMP JUMPDEST SWAP5 POP SWAP5 POP SWAP5 POP SWAP5 POP SWAP5 POP DUP4 SWAP6 POP POP POP POP POP POP SWAP1 JUMP JUMPDEST PUSH1 0x0 DUP2 MLOAD SWAP1 POP PUSH2 0x119 DUP2 PUSH2 0x21D JUMP JUMPDEST SWAP3 SWAP2 POP POP JUMP JUMPDEST PUSH1 0x0 DUP2 MLOAD SWAP1 POP PUSH2 0x12E DUP2 PUSH2 0x234 JUMP JUMPDEST SWAP3 SWAP2 POP POP JUMP JUMPDEST PUSH1 0x0 DUP2 MLOAD SWAP1 POP PUSH2 0x143 DUP2 PUSH2 0x24B JUMP JUMPDEST SWAP3 SWAP2 POP POP JUMP JUMPDEST PUSH1 0x0 DUP1 PUSH1 0x0 DUP1 PUSH1 0x0 PUSH1 0xA0 DUP7 DUP9 SUB SLT ISZERO PUSH2 0x165 JUMPI PUSH2 0x164 PUSH2 0x218 JUMP JUMPDEST JUMPDEST PUSH1 0x0 PUSH2 0x173 DUP9 DUP3 DUP10 ADD PUSH2 0x134 JUMP JUMPDEST SWAP6 POP POP PUSH1 0x20 PUSH2 0x184 DUP9 DUP3 DUP10 ADD PUSH2 0x10A JUMP JUMPDEST SWAP5 POP POP PUSH1 0x40 PUSH2 0x195 DUP9 DUP3 DUP10 ADD PUSH2 0x11F JUMP JUMPDEST SWAP4 POP POP PUSH1 0x60 PUSH2 0x1A6 DUP9 DUP3 DUP10 ADD PUSH2 0x11F JUMP JUMPDEST SWAP3 POP POP PUSH1 0x80 PUSH2 0x1B7 DUP9 DUP3 DUP10 ADD PUSH2 0x134 JUMP JUMPDEST SWAP2 POP POP SWAP3 SWAP6 POP SWAP3 SWAP6 SWAP1 SWAP4 POP JUMP JUMPDEST PUSH2 0x1CD DUP2 PUSH2 0x1EE JUMP JUMPDEST DUP3 MSTORE POP POP JUMP JUMPDEST PUSH1 0x0 PUSH1 0x20 DUP3 ADD SWAP1 POP PUSH2 0x1E8 PUSH1 0x0 DUP4 ADD DUP5 PUSH2 0x1C4 JUMP JUMPDEST SWAP3 SWAP2 POP POP JUMP JUMPDEST PUSH1 0x0 DUP2 SWAP1 POP SWAP2 SWAP1 POP JUMP JUMPDEST PUSH1 0x0 DUP2 SWAP1 POP SWAP2 SWAP1 POP JUMP JUMPDEST PUSH1 0x0 PUSH10 0xFFFFFFFFFFFFFFFFFFFF DUP3 AND SWAP1 POP SWAP2 SWAP1 POP JUMP JUMPDEST PUSH1 0x0 DUP1 REVERT JUMPDEST PUSH2 0x226 DUP2 PUSH2 0x1EE JUMP JUMPDEST DUP2 EQ PUSH2 0x231 JUMPI PUSH1 0x0 DUP1 REVERT JUMPDEST POP JUMP JUMPDEST PUSH2 0x23D DUP2 PUSH2 0x1F8 JUMP JUMPDEST DUP2 EQ PUSH2 0x248 JUMPI PUSH1 0x0 DUP1 REVERT JUMPDEST POP JUMP JUMPDEST PUSH2 0x254 DUP2 PUSH2 0x202 JUMP JUMPDEST DUP2 EQ PUSH2 0x25F JUMPI PUSH1 0x0 DUP1 REVERT JUMPDEST POP JUMP INVALID LOG2 PUSH5 0x6970667358 0x22 SLT KECCAK256 0xD9 ADDRESS SUB 0x5F SWAP14 PUSH18 0xE0FA151E46F9627B7F0A9DFCAB727817DADC 0x5F 0xDD LOG3 COINBASE 0xAD 0xAE 0xA5 PUSH27 0x64736F6C6343000807003300000000000000000000000000000000 "
				},
				"gasEstimates": {
					"creation": {
						"codeDepositCost": "132800",
						"executionCost": "24444",
						"totalCost": "157244"
					},
					"external": {
						"getLatestPrice()": "infinite"
					}
				},
				"methodIdentifiers": {
					"getLatestPrice()": "8e15f473"
				}
			},
			"storageLayout": {
				"storage": [
					{
						"astId": 5,
						"contract": "contracts/implementations/PriceConsumerV3.sol:PriceConsumerV3",
						"label": "priceFeed",
						"offset": 0,
						"slot": "0",
						"type": "t_contract(AggregatorV3Interface)86"
					}
				],
				"types": {
					"t_contract(AggregatorV3Interface)86": {
						"encoding": "inplace",
						"label": "contract AggregatorV3Interface",
						"numberOfBytes": "20"
					}
				}
			},
			"userdoc": {
				"kind": "user",
				"methods": {
					"constructor": {
						"notice": "Network: Kovan Aggregator: ETH/USD Address: 0x9326BFA02ADD2366b30bacB125260Af641031331"
					},
					"getLatestPrice()": {
						"notice": "Returns the latest price"
					}
				},
				"version": 1
			}
		}
	}
}